:1000BC00FEFDFBF7EFDFBF7F7FBFDFEFF7FBFDFE42
:0300CC0000FF0131
:0300E10001090012
:0C00CF007F147E147DF8DDFEDEFADFF603
:0100DB002202
:0400DC007FFADFFECA
:0100E00022FD
:10008F002097FD7508C8B2901200DC1508E508D35B
:10009F00940050F2E5099000BC93FF640160098F52
:0D00AF00A005091200CF80D8E4F50980D328
:03000000020003F8
:0C000300787FE4F6D8FD75810902004A00
:10000F0002008FE493A3F8E493A34003F68001F278
:10001F0008DFF48029E493A3F85407240CC8C333F2
:10002F00C4540F4420C8834004F456800146F6DFC1
:10003F00E4800B01020408102040809000E1E47E70
:10004F00019360BCA3FF543F30E509541FFEE493B6
:10005F00A360010ECF54C025E060A840B8E493A37D
:10006F00FAE493A3F8E493A3C8C582C8CAC583CAA8
:10007F00F0A3C8C582C8CAC583CADFE9DEE780BE60
:0100E400001B
:00000001FF
