:0A00DE00080E010204081020408003
:1000BE00EF1FAC0670011E4C6015750C25750DB248
:1000CE00E50D150DAC0C7002150C4C60E380F122A1
:10008F00E4F598C3E50B9408E50A64809480501E4C
:10009F00740E250BF8E6F5993099FDC2997F087E0D
:0F00AF00001200BE050BE50B70D9050A80D522A3
:03000000020003F8
:0C000300787FE4F6D8FD75811502004AF4
:10000F0002008FE493A3F8E493A34003F68001F278
:10001F0008DFF48029E493A3F85407240CC8C333F2
:10002F00C4540F4420C8834004F456800146F6DFC1
:10003F00E4800B01020408102040809000DEE47E73
:10004F00019360BCA3FF543F30E509541FFEE493B6
:10005F00A360010ECF54C025E060A840B8E493A37D
:10006F00FAE493A3F8E493A3C8C582C8CAC583CAA8
:10007F00F0A3C8C582C8CAC583CADFE9DEE780BE60
:0100E8000017
:00000001FF
