:0C0006000A0BC0F9A4B0999282F8809017
:1000DF00E4FFFE0FBF00010EE4B507F7EEB401F326
:1000EF00E4FFFE0FBF00010EE4B507F7EEB401F316
:0100FF0022DE
:03000300020100F7
:10010000C0E0C0D0050AE50AB46403750A63D0D024
:03011000D0E0320A
:03001300020113D4
:0B011300C0E0E50A6002150AD0E032EF
:1000A200D288D28AD2A8D2AAD2AFD2BAE50A75F041
:1000B2000A84F508E50A75F00A8485F009740B25AF
:1000C20008F8E6F590D2A11200DFC2A1740B25094F
:0D00D200F8E6F590D2A01200DFC2A080CFAA
:03000000020016E5
:0C001600787FE4F6D8FD75811402005DCF
:100022000200A2E493A3F8E493A34003F68001F252
:1000320008DFF48029E493A3F85407240CC8C333DF
:10004200C4540F4420C8834004F456800146F6DFAE
:10005200E4800B0102040810204080900006E47E38
:10006200019360BCA3FF543F30E509541FFEE493A3
:10007200A360010ECF54C025E060A840B8E493A36A
:10008200FAE493A3F8E493A3C8C582C8CAC583CA95
:10009200F0A3C8C582C8CAC583CADFE9DEE780BE4D
:0100120000ED
:00000001FF
