:1001FD0016080000FF9CFF38FED4FE70FE0CFDA813
:0D020D00FD44FCE0FC7CFC18011E00C180DB
:10021B00C2A0C2A1D2A2D2AFD288D28AD2A8D2AA6D
:07022B00D2A975890180FED4
:0601C900C2AF7F027E00C0
:1001CF00EF1FAA0670011E4A6023E4FCFDC3ED94E5
:1001DF000AEC6480948050E8E4FBFA0BBB00010A40
:0D01EF00EB647D4A70F50DBD00010C80E051
:0101FC0022E0
:030003000201896E
:10018900C0E0C0D075D000C002C003C004C005C023
:1001990006C0071201C920B214E51ED3940040021B
:1001A900151ED3928CE51E7004C28CC2A0D2AFD0AA
:1001B90007D006D005D004D003D002D0D0D0E03289
:03001300020128BF
:10012800C0E0C0D075D000C000C002C003C004C089
:1001380005C006C0071201C920B331E51ED3940AD1
:100148005002051E208C25E51ED39400401EC2A136
:10015800D2A2D2A0E51E25E02408F8E6FC08E6FDB8
:10016800ECF58CAF05EFF58AD28CD200D2AFD00770
:10017800D006D005D004D003D002D000D0D0D0E033
:010188003244
:03000B000200A24E
:1000A200C0E0C0D075D000C000C002C004C005C00E
:1000B20006C007C2AF300043C2A0E51E25E02408F7
:1000C200F8E6FE08E624E8FFEE3403FAC374FF9F65
:1000D200FF74FF9AFEE49400FDE49400FC78081299
:1000E20002328F8CE51E25E02408F808E624E8FF9A
:1000F200C374FF9FFF8F8AC2008018D2A0E51E251D
:10010200E02408F8E6FC08E6FDECF58CAF05EFF517
:100112008AD200D2AFD007D006D005D004D002D008
:0601220000D0D0D0E03255
:03000000020016E5
:0C001600787FE4F6D8FD75812002005DC3
:10023200E86010ECA2E713FCED13FDEE13FEEF13E2
:04024200FFD8F022CF
:1000220002021BE493A3F8E493A34003F68001F2D7
:1000320008DFF48029E493A3F85407240CC8C333DF
:10004200C4540F4420C8834004F456800146F6DFAE
:10005200E4800B01020408102040809001FDE47E40
:10006200019360BCA3FF543F30E509541FFEE493A3
:10007200A360010ECF54C025E060A840B8E493A36A
:10008200FAE493A3F8E493A3C8C582C8CAC583CA95
:10009200F0A3C8C582C8CAC583CADFE9DEE780BE4D
:01021A0000E3
:00000001FF
