:1002AD00FEFDFBF7EFDFBF7F3F065B4F666D7D0702
:0302BD007F6F0050
:0A000E0008120A0A0A0A0A0000009C
:1000EC00C2B0C2B1D2A9D2ABD2AF758912758CD8BD
:1000FC00758AD8758DEC758B78D28ED28CD2B0C2B5
:10010C00B030B2FDD2B185800CC2B1E50C75F0C433
:10011C00A4FFAEF0E48F118E10F50FF50E7B107A64
:10012C0027F9F8AD0FAC0E1202268F17AF11AE10D7
:10013C00AD0FAC0EE47B107A27F9F8120226AC0056
:10014C00AD01AE02AF038F118E108D0F8C0EE47BC0
:10015C00E87A03F9F81202268F18AF11AE10AD0F22
:10016C00AC0EE47BE87A03F9F8120226AC00AD0180
:10017C00AE02AF038F118E108D0F8C0EE47B64FAE0
:0E018C00F9F81202268F19D2B0C2B002010D8E
:03000B00020003ED
:03000300B2B33263
:03001B0002026A74
:10026A00C0E0C083C082C0D075D000758DE8758BA0
:10027A009075A0FF7412250DF8E69002B593F590DB
:10028A00E50D9002AD93F5A0E50DB405034390800A
:10029A00050DE50DB40803750D00D0D0D082D083CA
:0302AA00D0E0326F
:0300000002019A60
:0C019A00787FE4F6D8FD7581190201E1C0
:10022600C2D5E830E70FB2D5E4C39BFBE49AFAE403
:1002360099F9E498F8EC30E717B2D512025C12008F
:100246005AE4C39BFBE49AFAE499F9E498F880032C
:1002560012005A30D50DE4C39FFFE49EFEE49DFDD7
:04026600E49CFC22F6
:1001A6000200ECE493A3F8E493A34003F68001F283
:1001B60008DFF48029E493A3F85407240CC8C3335A
:1001C600C4540F4420C8834004F456800146F6DF29
:1001D600E4800B010204081020408090000EE47EAB
:1001E600019360BCA3FF543F30E509541FFEE4931E
:1001F600A360010ECF54C025E060A840B8E493A3E5
:10020600FAE493A3F8E493A3C8C582C8CAC583CA0F
:10021600F0A3C8C582C8CAC583CADFE9DEE780BEC7
:0100180000E7
:10001E0075F008758200EF2FFFEE33FECD33CDCC99
:10002E0033CCC58233C5829BED9AEC99E58298401C
:10003E000CF582EE9BFEED9AFDEC99FC0FD5F0D6F9
:10004E00E4CEFBE4CDFAE4CCF9A88222B800C1B923
:10005E000059BA002DEC8BF084CFCECDFCE5F0CB61
:10006E00F97818EF2FFFEE33FEED33FDEC33FCEB9A
:10007E0033FB10D703994004EB99FB0FD8E5E4F955
:10008E00FA227818EF2FFFEE33FEED33FDEC33FC42
:10009E00C933C910D7059BE99A4007EC9BFCE99A36
:1000AE00F90FD8E0E4C9FAE4CCFB2275F010EF2F7B
:1000BE00FFEE33FEED33FDCC33CCC833C810D7077B
:1000CE009BEC9AE899400AED9BFDEC9AFCE899F8B6
:0E00DE000FD5F0DAE4CDFBE4CCFAE4C8F92249
:00000001FF
