:1000030004244484649C40300FC808082818000066
:1000130010080601824C20180601061820408000B3
:10002300404042CC0000FC040200FC0404FC00003D
:100033000040201F20404F4442407F424443400041
:100043008060F80704E4242424FF242424E4040027
:100053000000FF0080814529112F414181818000EB
:100063000000FE22222222FE22222222FE00000083
:1000730080601F020202027F020242827F000000B0
:100083000000F8494A4C48F8484C4A49F800000037
:1000930010101312121212FF121212121310100068
:1000A300000000FE20202020203F202020200000F0
:1000B3000080601F020202020202FE000000000034
:1000C3001010D0FF901000FE020202FE000000009C
:1000D300040300FF0083601F0000003F40407800DE
:1000E3000000FE0202F2929A969292F2020202003B
:1000F30080601F40201744847C04041720400000C4
:10010300048484FC848400FE9292FE9292FE00009A
:100113002060201F1010404444447F444444400066
:1001230000000202FE42820242724E40C000000002
:100133008040300C8380414628102846418080004F
:100143000000FC0444840425C604040404E40400FD
:1001530040300F4040414E404063504C43404000CC
:100163000000FE22222222FE22222222FE00000082
:1001730080601F020202027F020242827F000000AF
:10018300101010FF109008888888FF88888808005E
:100193000444827F01808040432C102846818000E4
:1001A3000010101010D030FF30D0121C10100000BF
:1001B30010080402010000FF0000010204081000FF
:1001C30020A4A4A4FFA4B42884708F0808F808000E
:1001D300040A49887E0504844020130C33408000C0
:1001E3002424A4FE2322003E22222222223E0000B7
:1001F300080601FF0106404949497F494949410031
:1002030008049392969A92FA94939296FA020200B1
:100213004040472424140CFF04042444241C0000FD
:100223000000080808080808080808080800000073
:1002330010101010101010101010101010101000CB
:1002430000FE20203F2000FC24E4242223E20000BF
:10025300807F0101FF80601F8041261826418000B6
:10026300000000000000000000000000000000008B
:1002730000005838000000000000000000000000EB
:10028300404042CC0000000000FF404040400000DE
:100293000000003F50484040407F40404040400005
:1002A30020242424FE23222020FF20222CA020000F
:1002B300000848847F02414020130C142241F800B7
:1002C300008060F80700F8010600040404FC000045
:1002D300010000FF0000FF0000000040807F0000DD
:1002E3000000101010FF10101010FF10101000006D
:1002F30000048444241704040404172444840400DD
:100303000000FE02129292929292921202FE00005A
:100313000000FF00001F080808081F40807F00003E
:10032300404042CC00808888FF8888FF888880000E
:100333000040201F2040504C4340405F404040005D
:100343004040407C404040FF4444444444404000DB
:10035300809088464040202F1010080402000000BF
:10036300000000000000000000000000000000008A
:100373000000040818300000000000000000000026
:100383000000F8888888880808FF08090AC8080058
:1003930080601F0010201F80402116182641F8009E
:1003A30080808080FF8080A090888482808080000D
:1003B30000000000FF4021120408102020404000EC
:1003C300000000FE0000000000000000000000002C
:1003D30000000033000000000000000000000000E7
:1003E300000000FE0000000000000000000000000C
:1003F30000000033000000000000000000000000C7
:10054B001204C2750BFF750C00750D037B08E4FDDF
:10055B00FF1205B3120665750BFF750C01750D03C4
:10056B007F011205AF120665750BFF750C00750D3B
:10057B00037F021205AF120665750BFF750C017533
:10058B000D037B08E4FD7F031205B312066512060B
:10059B003D7FE87E0312066912063D7FE87E03125B
:0405AB000669809CC1
:1004C200E4FD7F3F120691E4FD7FC0120691E4FD38
:1004D2007FB8120691E4FD7F401206917D017F3FB5
:1004E2001206917D017FC01206917D017FB812062E
:1004F200917D017F40120691E4F508F509E4FDFFC4
:100502001206277D01E4FF1206270509E50970029C
:100512000508C3E508940140E4E4FD7FBC1206919E
:100522007D017FBC120691E4F508F509E4FDFF1296
:1005320006277D01E4FF1206270509E50970020579
:0805420008C3E508940140E440
:01054A00228E
:0A068700E510C454F02440FFE4FD28
:100691008F158D16AF161206A8E516700478108016
:0706A100027820E515F222AA
:0F06A800EF70057811E280037821E22081FD22B6
:0405AF007B08E4FDE4
:0605B3008F088D098B0A80
:1005B900E4F50EE50EC3950A5024E50E75F020A466
:1005C900AB0B250DF9E50C35F0FAAD09AF081204AE
:0E05D900037F327E001206690509050E80D5EB
:0105E70022F1
:0A0403008F0F8D108B118A128913E0
:10040D00E510C39404503DE50F25E024B8FFE4FD4D
:10041D00120691120687E4F5141206150514E5145B
:10042D00C3941040F4E50F25E024B9FFE4FD120656
:10043D00911206877514101206150514E514C39450
:10044D002040F422E50F25E024B8FF7D011206912E
:10045D00E510C454F0FF7D01120691E4F514AB11C3
:10046D00AA12A9138514827583001205E8FF7D0178
:10047D001206270514E514C3941040E2E50F25E09C
:10048D0024B9FF7D01120691E510C454F0FF7D01E2
:10049D00120691751410AB11AA12A9138514827549
:1004AD0083001205E8FF7D011206270514E514C32C
:0404BD00942040E265
:0104C1002218
:10061500AB11AA12A9138514827583001205E8FF90
:02062500E4FDF2
:10062700AE05AD07AF061206A8EE70057812EDF21B
:06063700227822EDF22200
:10063D00E4F508E50824C0FFE4FD120691E5082461
:10064D00C0FF7D011206917F0A7E00120669050822
:07065D00E508C3944040DCF6
:010664002273
:040665007F647E0030
:10066900D3EF9400EE940040147DF47C01ED1D70ED
:0D067900011CED4C70F7EF1F70E61E80E3D2
:010686002251
:030000000206B73E
:0C06B700787FE4F6D8FD75811602054B33
:1005E800BB010CE58229F582E5833AF583E02250C8
:1005F80006E92582F8E622BBFE06E92582F8E22212
:0D060800E58229F582E5833AF583E493222B
:00000001FF
