:1001730001210010220102030405060708090A0BE6
:050183000C0D0E0F1031
:0F0199001201897F647E001201A812009A80FB78
:10018900758901758AB0758C3CD28CD2A9D2AF22FF
:03000B0002011ED1
:0B011E00C0E0C0D075D000C000C007DA
:10012900E521C454F0FF74322521F8E64FF5800526
:1001390021E521D394014003752100758AB0758C9E
:010149003C79
:09014A00D007D000D0D0D0E03283
:10015300E4FDFCC3ED9FEC9E5015E4FBFA0BBB00E2
:0F016300010AEB640A4A70F50DBD00010C80E43F
:01017200226A
:0E01A8008F0AC2A07F327E00120153D2A02225
:10009A00C2007508F7E4F538F5098508907F0A7EED
:1000AA0000120153859039E53954F0245060142424
:1000BA00E0601924F0601F24707027E50925E02507
:1000CA00E0801BE50925E025E0048012E50925E02A
:1000DA0025E024028008E50925E025E02403F53817
:1000EA00D20030001A74222538F8E6FF75F00A8427
:1000FA0085F032EF75F00A84F5337FC80201A8E56E
:10010A0008A2E7134480F5080509C3E50964809449
:03011A0084408797
:01011D0022BF
:0300000002000EED
:0C000E00787FE4F6D8FD758139020055BA
:10001A00020199E493A3F8E493A34003F68001F262
:10002A0008DFF48029E493A3F85407240CC8C333E7
:10003A00C4540F4420C8834004F456800146F6DFB6
:10004A00E4800B0102040810204080900173E47ED2
:10005A00019360BCA3FF543F30E509541FFEE493AB
:10006A00A360010ECF54C025E060A840B8E493A372
:10007A00FAE493A3F8E493A3C8C582C8CAC583CA9D
:10008A00F0A3C8C582C8CAC583CADFE9DEE780BE55
:010188000076
:00000001FF
